{
    "_format": "hh-sol-artifact-1",
    "contractName": "Game",
    "sourceName": "contracts/Game.sol",
    "abi": [
        {
            "inputs": [
                {
                    "internalType": "uint256",
                    "name": "_teamSize",
                    "type": "uint256"
                },
                {
                    "internalType": "uint256",
                    "name": "_entranceFee",
                    "type": "uint256"
                }
            ],
            "stateMutability": "nonpayable",
            "type": "constructor"
        },
        {
            "anonymous": false,
            "inputs": [
                {
                    "indexed": true,
                    "internalType": "bytes32",
                    "name": "id",
                    "type": "bytes32"
                }
            ],
            "name": "ChainlinkCancelled",
            "type": "event"
        },
        {
            "anonymous": false,
            "inputs": [
                {
                    "indexed": true,
                    "internalType": "bytes32",
                    "name": "id",
                    "type": "bytes32"
                }
            ],
            "name": "ChainlinkFulfilled",
            "type": "event"
        },
        {
            "anonymous": false,
            "inputs": [
                {
                    "indexed": true,
                    "internalType": "bytes32",
                    "name": "id",
                    "type": "bytes32"
                }
            ],
            "name": "ChainlinkRequested",
            "type": "event"
        },
        {
            "anonymous": false,
            "inputs": [
                {
                    "indexed": true,
                    "internalType": "address",
                    "name": "from",
                    "type": "address"
                },
                {
                    "indexed": true,
                    "internalType": "address",
                    "name": "to",
                    "type": "address"
                }
            ],
            "name": "OwnershipTransferRequested",
            "type": "event"
        },
        {
            "anonymous": false,
            "inputs": [
                {
                    "indexed": true,
                    "internalType": "address",
                    "name": "from",
                    "type": "address"
                },
                {
                    "indexed": true,
                    "internalType": "address",
                    "name": "to",
                    "type": "address"
                }
            ],
            "name": "OwnershipTransferred",
            "type": "event"
        },
        {
            "anonymous": false,
            "inputs": [
                {
                    "indexed": true,
                    "internalType": "bytes32",
                    "name": "requestId",
                    "type": "bytes32"
                },
                {
                    "indexed": false,
                    "internalType": "uint256",
                    "name": "volume",
                    "type": "uint256"
                }
            ],
            "name": "RequestVolume",
            "type": "event"
        },
        {
            "anonymous": false,
            "inputs": [
                {
                    "indexed": false,
                    "internalType": "address[]",
                    "name": "winnerAddresses",
                    "type": "address[]"
                },
                {
                    "indexed": false,
                    "internalType": "uint256",
                    "name": "reward",
                    "type": "uint256"
                }
            ],
            "name": "RewardDistributedEvent",
            "type": "event"
        },
        {
            "anonymous": false,
            "inputs": [
                {
                    "indexed": true,
                    "internalType": "bytes32",
                    "name": "role",
                    "type": "bytes32"
                },
                {
                    "indexed": true,
                    "internalType": "bytes32",
                    "name": "previousAdminRole",
                    "type": "bytes32"
                },
                {
                    "indexed": true,
                    "internalType": "bytes32",
                    "name": "newAdminRole",
                    "type": "bytes32"
                }
            ],
            "name": "RoleAdminChanged",
            "type": "event"
        },
        {
            "anonymous": false,
            "inputs": [
                {
                    "indexed": true,
                    "internalType": "bytes32",
                    "name": "role",
                    "type": "bytes32"
                },
                {
                    "indexed": true,
                    "internalType": "address",
                    "name": "account",
                    "type": "address"
                },
                {
                    "indexed": true,
                    "internalType": "address",
                    "name": "sender",
                    "type": "address"
                }
            ],
            "name": "RoleGranted",
            "type": "event"
        },
        {
            "anonymous": false,
            "inputs": [
                {
                    "indexed": true,
                    "internalType": "bytes32",
                    "name": "role",
                    "type": "bytes32"
                },
                {
                    "indexed": true,
                    "internalType": "address",
                    "name": "account",
                    "type": "address"
                },
                {
                    "indexed": true,
                    "internalType": "address",
                    "name": "sender",
                    "type": "address"
                }
            ],
            "name": "RoleRevoked",
            "type": "event"
        },
        {
            "anonymous": false,
            "inputs": [
                {
                    "indexed": false,
                    "internalType": "uint256",
                    "name": "balance",
                    "type": "uint256"
                }
            ],
            "name": "Withdraw",
            "type": "event"
        },
        {
            "anonymous": false,
            "inputs": [
                {
                    "indexed": false,
                    "internalType": "address",
                    "name": "_playerAddress",
                    "type": "address"
                },
                {
                    "indexed": false,
                    "internalType": "uint256",
                    "name": "_teamNumber",
                    "type": "uint256"
                }
            ],
            "name": "playerReadyEvent",
            "type": "event"
        },
        {
            "inputs": [],
            "name": "ADMIN_ROLE",
            "outputs": [
                {
                    "internalType": "bytes32",
                    "name": "",
                    "type": "bytes32"
                }
            ],
            "stateMutability": "view",
            "type": "function"
        },
        {
            "inputs": [],
            "name": "DEFAULT_ADMIN_ROLE",
            "outputs": [
                {
                    "internalType": "bytes32",
                    "name": "",
                    "type": "bytes32"
                }
            ],
            "stateMutability": "view",
            "type": "function"
        },
        {
            "inputs": [],
            "name": "acceptOwnership",
            "outputs": [],
            "stateMutability": "nonpayable",
            "type": "function"
        },
        {
            "inputs": [
                {
                    "internalType": "address",
                    "name": "",
                    "type": "address"
                }
            ],
            "name": "addressToTeam",
            "outputs": [
                {
                    "internalType": "uint256",
                    "name": "",
                    "type": "uint256"
                }
            ],
            "stateMutability": "view",
            "type": "function"
        },
        {
            "inputs": [
                {
                    "internalType": "bytes",
                    "name": "",
                    "type": "bytes"
                }
            ],
            "name": "checkUpkeep",
            "outputs": [
                {
                    "internalType": "bool",
                    "name": "upkeepNeeded",
                    "type": "bool"
                },
                {
                    "internalType": "bytes",
                    "name": "",
                    "type": "bytes"
                }
            ],
            "stateMutability": "view",
            "type": "function"
        },
        {
            "inputs": [],
            "name": "currentState",
            "outputs": [
                {
                    "internalType": "enum Game.GameState",
                    "name": "",
                    "type": "uint8"
                }
            ],
            "stateMutability": "view",
            "type": "function"
        },
        {
            "inputs": [],
            "name": "entranceFee",
            "outputs": [
                {
                    "internalType": "uint256",
                    "name": "",
                    "type": "uint256"
                }
            ],
            "stateMutability": "view",
            "type": "function"
        },
        {
            "inputs": [
                {
                    "internalType": "bytes32",
                    "name": "_requestId",
                    "type": "bytes32"
                },
                {
                    "internalType": "uint256",
                    "name": "_volume",
                    "type": "uint256"
                }
            ],
            "name": "fulfill",
            "outputs": [],
            "stateMutability": "nonpayable",
            "type": "function"
        },
        {
            "inputs": [
                {
                    "internalType": "bytes32",
                    "name": "role",
                    "type": "bytes32"
                }
            ],
            "name": "getRoleAdmin",
            "outputs": [
                {
                    "internalType": "bytes32",
                    "name": "",
                    "type": "bytes32"
                }
            ],
            "stateMutability": "view",
            "type": "function"
        },
        {
            "inputs": [
                {
                    "internalType": "bytes32",
                    "name": "role",
                    "type": "bytes32"
                },
                {
                    "internalType": "address",
                    "name": "account",
                    "type": "address"
                }
            ],
            "name": "grantRole",
            "outputs": [],
            "stateMutability": "nonpayable",
            "type": "function"
        },
        {
            "inputs": [
                {
                    "internalType": "bytes32",
                    "name": "role",
                    "type": "bytes32"
                },
                {
                    "internalType": "address",
                    "name": "account",
                    "type": "address"
                }
            ],
            "name": "hasRole",
            "outputs": [
                {
                    "internalType": "bool",
                    "name": "",
                    "type": "bool"
                }
            ],
            "stateMutability": "view",
            "type": "function"
        },
        {
            "inputs": [],
            "name": "owner",
            "outputs": [
                {
                    "internalType": "address",
                    "name": "",
                    "type": "address"
                }
            ],
            "stateMutability": "view",
            "type": "function"
        },
        {
            "inputs": [
                {
                    "internalType": "bytes",
                    "name": "",
                    "type": "bytes"
                }
            ],
            "name": "performUpkeep",
            "outputs": [],
            "stateMutability": "nonpayable",
            "type": "function"
        },
        {
            "inputs": [
                {
                    "internalType": "uint256",
                    "name": "_teamNumber",
                    "type": "uint256"
                }
            ],
            "name": "playerReady",
            "outputs": [],
            "stateMutability": "payable",
            "type": "function"
        },
        {
            "inputs": [
                {
                    "internalType": "bytes32",
                    "name": "role",
                    "type": "bytes32"
                },
                {
                    "internalType": "address",
                    "name": "account",
                    "type": "address"
                }
            ],
            "name": "renounceRole",
            "outputs": [],
            "stateMutability": "nonpayable",
            "type": "function"
        },
        {
            "inputs": [],
            "name": "requestVolumeData",
            "outputs": [
                {
                    "internalType": "bytes32",
                    "name": "requestId",
                    "type": "bytes32"
                }
            ],
            "stateMutability": "nonpayable",
            "type": "function"
        },
        {
            "inputs": [
                {
                    "internalType": "uint256",
                    "name": "_teamSize",
                    "type": "uint256"
                },
                {
                    "internalType": "uint256",
                    "name": "_entranceFee",
                    "type": "uint256"
                }
            ],
            "name": "restartGame",
            "outputs": [],
            "stateMutability": "nonpayable",
            "type": "function"
        },
        {
            "inputs": [
                {
                    "internalType": "bytes32",
                    "name": "role",
                    "type": "bytes32"
                },
                {
                    "internalType": "address",
                    "name": "account",
                    "type": "address"
                }
            ],
            "name": "revokeRole",
            "outputs": [],
            "stateMutability": "nonpayable",
            "type": "function"
        },
        {
            "inputs": [
                {
                    "internalType": "address",
                    "name": "_gameAdmin",
                    "type": "address"
                }
            ],
            "name": "setAdminRole",
            "outputs": [],
            "stateMutability": "nonpayable",
            "type": "function"
        },
        {
            "inputs": [
                {
                    "internalType": "uint256",
                    "name": "_entranceFee",
                    "type": "uint256"
                }
            ],
            "name": "setEntranceFee",
            "outputs": [],
            "stateMutability": "nonpayable",
            "type": "function"
        },
        {
            "inputs": [
                {
                    "internalType": "uint256",
                    "name": "_taxFee",
                    "type": "uint256"
                }
            ],
            "name": "setTaxFee",
            "outputs": [],
            "stateMutability": "nonpayable",
            "type": "function"
        },
        {
            "inputs": [
                {
                    "internalType": "uint256",
                    "name": "_teamSize",
                    "type": "uint256"
                }
            ],
            "name": "setTeamSize",
            "outputs": [],
            "stateMutability": "nonpayable",
            "type": "function"
        },
        {
            "inputs": [
                {
                    "internalType": "uint256",
                    "name": "_teamNumber",
                    "type": "uint256"
                }
            ],
            "name": "setWinningTeam",
            "outputs": [],
            "stateMutability": "nonpayable",
            "type": "function"
        },
        {
            "inputs": [
                {
                    "internalType": "bytes4",
                    "name": "interfaceId",
                    "type": "bytes4"
                }
            ],
            "name": "supportsInterface",
            "outputs": [
                {
                    "internalType": "bool",
                    "name": "",
                    "type": "bool"
                }
            ],
            "stateMutability": "view",
            "type": "function"
        },
        {
            "inputs": [],
            "name": "taxFee",
            "outputs": [
                {
                    "internalType": "uint256",
                    "name": "",
                    "type": "uint256"
                }
            ],
            "stateMutability": "view",
            "type": "function"
        },
        {
            "inputs": [],
            "name": "teamSize",
            "outputs": [
                {
                    "internalType": "uint256",
                    "name": "",
                    "type": "uint256"
                }
            ],
            "stateMutability": "view",
            "type": "function"
        },
        {
            "inputs": [
                {
                    "internalType": "uint256",
                    "name": "",
                    "type": "uint256"
                },
                {
                    "internalType": "uint256",
                    "name": "",
                    "type": "uint256"
                }
            ],
            "name": "teamToAddresses",
            "outputs": [
                {
                    "internalType": "address",
                    "name": "",
                    "type": "address"
                }
            ],
            "stateMutability": "view",
            "type": "function"
        },
        {
            "inputs": [],
            "name": "totalBalance",
            "outputs": [
                {
                    "internalType": "uint256",
                    "name": "",
                    "type": "uint256"
                }
            ],
            "stateMutability": "view",
            "type": "function"
        },
        {
            "inputs": [
                {
                    "internalType": "address",
                    "name": "to",
                    "type": "address"
                }
            ],
            "name": "transferOwnership",
            "outputs": [],
            "stateMutability": "nonpayable",
            "type": "function"
        },
        {
            "inputs": [],
            "name": "volume",
            "outputs": [
                {
                    "internalType": "uint256",
                    "name": "",
                    "type": "uint256"
                }
            ],
            "stateMutability": "view",
            "type": "function"
        },
        {
            "inputs": [],
            "name": "winningTeam",
            "outputs": [
                {
                    "internalType": "uint256",
                    "name": "",
                    "type": "uint256"
                }
            ],
            "stateMutability": "view",
            "type": "function"
        },
        {
            "inputs": [],
            "name": "withdraw",
            "outputs": [],
            "stateMutability": "nonpayable",
            "type": "function"
        },
        {
            "inputs": [],
            "name": "withdrawLink",
            "outputs": [],
            "stateMutability": "nonpayable",
            "type": "function"
        }
    ],
    "bytecode": "0x60806040526001600655655af3107a40006013553480156200002057600080fd5b5060405162002af538038062002af58339810160408190526200004391620002cc565b600160009081553390819081620000a15760405162461bcd60e51b815260206004820152601860248201527f43616e6e6f7420736574206f776e657220746f207a65726f000000000000000060448201526064015b60405180910390fd5b600880546001600160a01b0319166001600160a01b0384811691909117909155811615620000d457620000d4816200021f565b505050600082116200011b5760405162461bcd60e51b815260206004820152600f60248201526e57524f4e475f5445414d5f53495a4560881b604482015260640162000098565b60008111620001625760405162461bcd60e51b815260206004820152601260248201527157524f4e475f454e5452414e43455f46454560701b604482015260640162000098565b6000601181905560145560108290556012819055600d805460ff19169055600480546001600160a01b03191673a36085f69e2889c224210f603d836748e7dc0088179055600580546001600160a01b0319167374ecc8bdeb76f2c6760ed2dc8a46ca5e581fa6561790557f6361393833363663633733313439353762386330313263373266303561656562600b55600a62000207670de0b6b3a7640000600162000311565b620002139190620002f0565b600c55506200033d9050565b6001600160a01b0381163314156200027a5760405162461bcd60e51b815260206004820152601760248201527f43616e6e6f74207472616e7366657220746f2073656c66000000000000000000604482015260640162000098565b600980546001600160a01b0319166001600160a01b03838116918217909255600854604051919216907fed8889f560326eb138920d842192f0eb3dd22b4f139c87a2c57538e05bae127890600090a350565b60008060408385031215620002df578182fd5b505080516020909101519092909150565b6000826200030c57634e487b7160e01b81526012600452602481fd5b500490565b60008160001904831182151516156200033857634e487b7160e01b81526011600452602481fd5b500290565b6127a8806200034d6000396000f3fe6080604052600436106101ee5760003560e01c80638dc654a21161010d578063c618a1e4116100a0578063e3c00b201161006f578063e3c00b2014610582578063e6a3e67f146105a2578063ecce7e63146105b5578063f2fde38b146105d5578063fe56f5a0146105f557600080fd5b8063c618a1e414610516578063c7364c491461052c578063d547741f1461054c578063de3f18e21461056c57600080fd5b8063ad7a672f116100dc578063ad7a672f1461049d578063ad92ab35146104b3578063b6c32593146104e0578063c4081a4c146104f657600080fd5b80638dc654a21461043d57806391d1485414610452578063a071dcf414610472578063a217fddf1461048857600080fd5b80634adc7cfd116101855780636e04ff0d116101545780636e04ff0d146103a857806375b238fc146103d657806379ba50971461040a5780638da5cb5b1461041f57600080fd5b80634adc7cfd146103255780636021abac14610345578063649677e11461035a5780636c2ae6cc1461037057600080fd5b806336568abe116101c157806336568abe146102b05780633ccfd60b146102d05780634357855e146102e55780634585e33b1461030557600080fd5b806301ffc9a7146101f35780630c3f6acf14610228578063248a9ca31461024f5780632f2ff15d1461028e575b600080fd5b3480156101ff57600080fd5b5061021361020e366004612240565b610615565b60405190151581526020015b60405180910390f35b34801561023457600080fd5b50600d546102429060ff1681565b60405161021f9190612489565b34801561025b57600080fd5b5061028061026a3660046121dc565b6000908152600160208190526040909120015490565b60405190815260200161021f565b34801561029a57600080fd5b506102ae6102a93660046121f4565b61064c565b005b3480156102bc57600080fd5b506102ae6102cb3660046121f4565b610677565b3480156102dc57600080fd5b506102ae6106fa565b3480156102f157600080fd5b506102ae61030036600461221f565b6107be565b34801561031157600080fd5b506102ae610320366004612268565b6108c8565b34801561033157600080fd5b506102ae6103403660046121a2565b610919565b34801561035157600080fd5b5061028061094e565b34801561036657600080fd5b5061028060125481565b34801561037c57600080fd5b5061039061038b36600461221f565b610a39565b6040516001600160a01b03909116815260200161021f565b3480156103b457600080fd5b506103c86103c3366004612268565b610a71565b60405161021f92919061246e565b3480156103e257600080fd5b506102807f745191d59a0c5ecaf2331ad3570e4033c5b04de0434263ec14a70fce5475ab7f81565b34801561041657600080fd5b506102ae610ac2565b34801561042b57600080fd5b506008546001600160a01b0316610390565b34801561044957600080fd5b506102ae610b70565b34801561045e57600080fd5b5061021361046d3660046121f4565b610ccf565b34801561047e57600080fd5b5061028060135481565b34801561049457600080fd5b50610280600081565b3480156104a957600080fd5b5061028060115481565b3480156104bf57600080fd5b506102806104ce3660046121a2565b600e6020526000908152604090205481565b3480156104ec57600080fd5b5061028060105481565b34801561050257600080fd5b506102ae6105113660046121dc565b610cfa565b34801561052257600080fd5b50610280600a5481565b34801561053857600080fd5b506102ae61054736600461221f565b610d07565b34801561055857600080fd5b506102ae6105673660046121f4565b610ea8565b34801561057857600080fd5b5061028060145481565b34801561058e57600080fd5b506102ae61059d3660046121dc565b610ece565b6102ae6105b03660046121dc565b610f1d565b3480156105c157600080fd5b506102ae6105d03660046121dc565b611192565b3480156105e157600080fd5b506102ae6105f03660046121a2565b611262565b34801561060157600080fd5b506102ae6106103660046121dc565b611273565b60006001600160e01b03198216637965db0b60e01b148061064657506301ffc9a760e01b6001600160e01b03198316145b92915050565b60008281526001602081905260409091200154610668816112c7565b61067283836112d1565b505050565b6001600160a01b03811633146106ec5760405162461bcd60e51b815260206004820152602f60248201527f416363657373436f6e74726f6c3a2063616e206f6e6c792072656e6f756e636560448201526e103937b632b9903337b91039b2b63360891b60648201526084015b60405180910390fd5b6106f6828261133c565b5050565b6107026113a3565b478061075a5760405162461bcd60e51b815260206004820152602160248201527f57697468647261773a204e4f5f4e41544956455f544f4b454e5f42414c414e436044820152604560f81b60648201526084016106e3565b604051339082156108fc029083906000818181858888f19350505050158015610787573d6000803e3d6000fd5b506040518181527f5b6b431d4476a211bb7d41c20d1aab9ae2321deee0d20be3d9fc9b1093fa6e3d9060200160405180910390a150565b60008281526007602052604090205482906001600160a01b031633146108375760405162461bcd60e51b815260206004820152602860248201527f536f75726365206d75737420626520746865206f7261636c65206f6620746865604482015267081c995c5d595cdd60c21b60648201526084016106e3565b60008181526007602052604080822080546001600160a01b03191690555182917f7cc135e0cebb02c3480ae5d74d377283180a2601f8f644edf7987b009316c63a91a2827f673b38182859a514d734bdfcb49d3a05c4a641dec9311d9894c9717bcb79af76836040516108ac91815260200190565b60405180910390a25060145550600d805460ff19166002179055565b6002600d5460ff1660028111156108ef57634e487b7160e01b600052602160045260246000fd5b1480156108fd575060145415155b801561090c5750601454600314155b156106f6576106f66113f8565b6109216113a3565b61094b7f745191d59a0c5ecaf2331ad3570e4033c5b04de0434263ec14a70fce5475ab7f826115af565b50565b600080610965600b5430634357855e60e01b6115b9565b90506109a76040518060400160405280600381526020016219d95d60ea1b8152506040518060800160405280604481526020016126ef604491398391906115de565b6109fb604051806040016040528060048152602001630e0c2e8d60e31b8152506040518060400160405280600b81526020016a3137b23c963bb4b73732b960a91b815250836115de9092919063ffffffff16565b60408051808201909152600581526474696d657360d81b6020820152600190610a26908390836115fc565b610a3282600c5461161a565b9250505090565b600f6020528160005260406000208181548110610a5557600080fd5b6000918252602090912001546001600160a01b03169150829050565b600060606002600d5460ff166002811115610a9c57634e487b7160e01b600052602160045260246000fd5b148015610aaa575060145415155b8015610ab95750601454600314155b91509250929050565b6009546001600160a01b03163314610b155760405162461bcd60e51b815260206004820152601660248201527526bab9ba10313290383937b837b9b2b21037bbb732b960511b60448201526064016106e3565b600880546001600160a01b0319808216339081179093556009805490911690556040516001600160a01b03909116919082907f8be0079c531659141344cd1fd0a4f28419497f9722a3daafe3b4186f6b6457e090600090a350565b610b786113a3565b6000610b8c6004546001600160a01b031690565b6040516370a0823160e01b81523060048201529091506001600160a01b0382169063a9059cbb90339083906370a082319060240160206040518083038186803b158015610bd857600080fd5b505afa158015610bec573d6000803e3d6000fd5b505050506040513d601f19601f82011682018060405250810190610c1091906122d5565b6040516001600160e01b031960e085901b1681526001600160a01b0390921660048301526024820152604401602060405180830381600087803b158015610c5657600080fd5b505af1158015610c6a573d6000803e3d6000fd5b505050506040513d601f19601f82011682018060405250810190610c8e91906121bc565b61094b5760405162461bcd60e51b81526020600482015260126024820152712ab730b13632903a37903a3930b739b332b960711b60448201526064016106e3565b60009182526001602090815260408084206001600160a01b0393909316845291905290205460ff1690565b610d026113a3565b601355565b60005b6001600052600f60205260008051602061273383398151915254811015610da25760016000908152600f6020526000805160206127338339815191528054600e92919084908110610d6b57634e487b7160e01b600052603260045260246000fd5b60009182526020808320909101546001600160a01b0316835282019290925260400181205580610d9a81612693565b915050610d0a565b5060005b6002600052600f60205260008051602061275383398151915254811015610e3e5760026000908152600f6020526000805160206127538339815191528054600e92919084908110610e0757634e487b7160e01b600052603260045260246000fd5b60009182526020808320909101546001600160a01b0316835282019290925260400181205580610e3681612693565b915050610da6565b5060016000908152600f602052610e649060008051602061273383398151915290612114565b60026000908152600f602052610e899060008051602061275383398151915290612114565b60006011819055601455601091909155601255600d805460ff19169055565b60008281526001602081905260409091200154610ec4816112c7565b610672838361133c565b610ed66113a3565b60008111610f185760405162461bcd60e51b815260206004820152600f60248201526e57524f4e475f5445414d5f53495a4560881b60448201526064016106e3565b601055565b60026000541415610f705760405162461bcd60e51b815260206004820152601f60248201527f5265656e7472616e637947756172643a207265656e7472616e742063616c6c0060448201526064016106e3565b60026000558015801590610f845750600381105b610fc65760405162461bcd60e51b815260206004820152601360248201527224a72b20a624a22faa22a0a6afa72aa6a122a960691b60448201526064016106e3565b346012541461100e5760405162461bcd60e51b81526020600482015260146024820152734e4f545f454e4f5547485f464f525f454e54525960601b60448201526064016106e3565b6010546000828152600f6020526040902054111561105d5760405162461bcd60e51b815260206004820152600c60248201526b1511505357d254d7d195531360a21b60448201526064016106e3565b611067338261163b565b156110a45760405162461bcd60e51b815260206004820152600d60248201526c20a62922a0a22cafa2a72a22a960991b60448201526064016106e3565b336000818152600e60209081526040808320859055848352600f8252822080546001810182559083529082200180546001600160a01b031916909217909155601180543492906110f59084906124c4565b90915550506010546001600052600f6020526000805160206127338339815191525414801561113e57506010546002600052600f60205260008051602061275383398151915254145b1561115157600d805460ff191660011790555b60408051338152602081018390527fdb1b2b12c764a72c7b10511a5631f230eb2d7219fe0a3c31e04d9ff1699e0ef8910160405180910390a1506001600055565b6111bc7f745191d59a0c5ecaf2331ad3570e4033c5b04de0434263ec14a70fce5475ab7f33610ccf565b6111fe5760405162461bcd60e51b815260206004820152601360248201527221a0a62622a92fa4a9afa727aa2fa0a226a4a760691b60448201526064016106e3565b60008111801561120e5750600481105b6112505760405162461bcd60e51b815260206004820152601360248201527224a72b20a624a22faa22a0a6afa72aa6a122a960691b60448201526064016106e3565b601455600d805460ff19166002179055565b61126a6113a3565b61094b81611714565b61127b6113a3565b6000601254116112c25760405162461bcd60e51b815260206004820152601260248201527157524f4e475f454e5452414e43455f46454560701b60448201526064016106e3565b601255565b61094b81336117bf565b6112db8282610ccf565b6106f65760008281526001602081815260408084206001600160a01b0386168086529252808420805460ff19169093179092559051339285917f2f8788117e7eff1d82e926ec794901d17c78024a50270940304540a733656f0d9190a45050565b6113468282610ccf565b156106f65760008281526001602090815260408083206001600160a01b0385168085529252808320805460ff1916905551339285917ff6391f5c32d9c69d2a47ea670b442974b53935d1edc7fd64eb21e047a839171b9190a45050565b6008546001600160a01b031633146113f65760405162461bcd60e51b815260206004820152601660248201527527b7363c9031b0b63630b1363290313c9037bbb732b960511b60448201526064016106e3565b565b600060105460135460115461140d9190612639565b61141791906124dc565b90506000600f6000601454815260200190815260200160002080548060200260200160405190810160405280929190818152602001828054801561148457602002820191906000526020600020905b81546001600160a01b03168152600190910190602001808311611466575b5050505050905060005b601054811015611571576000808383815181106114bb57634e487b7160e01b600052603260045260246000fd5b60200260200101516001600160a01b03168560405160006040518083038185875af1925050503d806000811461150d576040519150601f19603f3d011682016040523d82523d6000602084013e611512565b606091505b50915091508161155c5760405162461bcd60e51b815260206004820152601560248201527411985a5b1959081d1bc81cd95b990814995dd85c99605a1b60448201526064016106e3565b5050808061156990612693565b91505061148e565b507ffb21d734d914ecf0a9bc260ce72204fb9d04a3f781d0fa034c63bc8ac9684f6381836040516115a392919061241d565b60405180910390a15050565b6106f682826112d1565b6115c1612132565b6115c9612132565b6115d581868686611823565b95945050505050565b60808301516115ed9083611869565b60808301516106729082611869565b608083015161160b9083611869565b60808301516106729082611880565b600554600090611634906001600160a01b031684846118e0565b9392505050565b6000818152600f602090815260408083208054825181850281018501909352808352849383018282801561169857602002820191906000526020600020905b81546001600160a01b0316815260019091019060200180831161167a575b5050505050905060005b815181101561170957846001600160a01b03168282815181106116d557634e487b7160e01b600052603260045260246000fd5b60200260200101516001600160a01b031614156116f757600192505050610646565b8061170181612693565b9150506116a2565b506000949350505050565b6001600160a01b03811633141561176d5760405162461bcd60e51b815260206004820152601760248201527f43616e6e6f74207472616e7366657220746f2073656c6600000000000000000060448201526064016106e3565b600980546001600160a01b0319166001600160a01b03838116918217909255600854604051919216907fed8889f560326eb138920d842192f0eb3dd22b4f139c87a2c57538e05bae127890600090a350565b6117c98282610ccf565b6106f6576117e1816001600160a01b03166014611973565b6117ec836020611973565b6040516020016117fd929190612319565b60408051601f198184030181529082905262461bcd60e51b82526106e3916004016124b1565b61182b612132565b61183b8560800151610100611b55565b50508284526001600160a01b03821660208501526001600160e01b031981166040850152835b949350505050565b6118768260038351611bba565b6106728282611ccf565b67ffffffffffffffff1981121561189b576106f68282611cf6565b67ffffffffffffffff8113156118b5576106f68282611d38565b600081126118c9576106f682600083611bba565b6106f68260016118db846000196125fa565b611bba565b6006546000906118f18160016124c4565b600655835160408086015160808701515191516000936320214ca360e11b936119299386938493923092918a9160019160240161238e565b60408051601f198184030181529190526020810180516001600160e01b03166001600160e01b031990931692909217909152905061196986838684611d5b565b9695505050505050565b606060006119828360026125db565b61198d9060026124c4565b67ffffffffffffffff8111156119b357634e487b7160e01b600052604160045260246000fd5b6040519080825280601f01601f1916602001820160405280156119dd576020820181803683370190505b509050600360fc1b81600081518110611a0657634e487b7160e01b600052603260045260246000fd5b60200101906001600160f81b031916908160001a905350600f60fb1b81600181518110611a4357634e487b7160e01b600052603260045260246000fd5b60200101906001600160f81b031916908160001a9053506000611a678460026125db565b611a729060016124c4565b90505b6001811115611b06576f181899199a1a9b1b9c1cb0b131b232b360811b85600f1660108110611ab457634e487b7160e01b600052603260045260246000fd5b1a60f81b828281518110611ad857634e487b7160e01b600052603260045260246000fd5b60200101906001600160f81b031916908160001a90535060049490941c93611aff8161267c565b9050611a75565b5083156116345760405162461bcd60e51b815260206004820181905260248201527f537472696e67733a20686578206c656e67746820696e73756666696369656e7460448201526064016106e3565b604080518082019091526060815260006020820152611b756020836126ae565b15611b9d57611b856020836126ae565b611b90906020612639565b611b9a90836124c4565b91505b506020828101829052604080518085526000815290920101905290565b60178167ffffffffffffffff1611611be557611bdf8360e0600585901b168317611ec7565b50505050565b60ff8167ffffffffffffffff1611611c2357611c0c836018611fe0600586901b1617611ec7565b50611bdf8367ffffffffffffffff83166001611eec565b61ffff8167ffffffffffffffff1611611c6257611c4b836019611fe0600586901b1617611ec7565b50611bdf8367ffffffffffffffff83166002611eec565b63ffffffff8167ffffffffffffffff1611611ca357611c8c83601a611fe0600586901b1617611ec7565b50611bdf8367ffffffffffffffff83166004611eec565b611cb883601b611fe0600586901b1617611ec7565b50611bdf8367ffffffffffffffff83166008611eec565b60408051808201909152606081526000602082015261163483846000015151848551611f12565b611d018260c3611ec7565b506106f682611d12836000196125fa565b604051602001611d2491815260200190565b604051602081830303815290604052611ffc565b611d438260c2611ec7565b506106f68282604051602001611d2491815260200190565b6040516bffffffffffffffffffffffff193060601b1660208201526034810184905260009060540160408051808303601f1901815282825280516020918201206000818152600790925291812080546001600160a01b0319166001600160a01b038a1617905590925082917fb5e6e01e79f91267dc17b4e6314d5d4d03593d2ceee0fbb452b750bd70ea5af99190a260048054604051630200057560e51b81526001600160a01b0390911691634000aea091611e1d91899188918891016123f6565b602060405180830381600087803b158015611e3757600080fd5b505af1158015611e4b573d6000803e3d6000fd5b505050506040513d601f19601f82011682018060405250810190611e6f91906121bc565b6118615760405162461bcd60e51b815260206004820152602360248201527f756e61626c6520746f207472616e73666572416e6443616c6c20746f206f7261604482015262636c6560e81b60648201526084016106e3565b6040805180820190915260608152600060208201526116348384600001515184612009565b604080518082019091526060815260006020820152611861848560000151518585612065565b6040805180820190915260608152600060208201528251821115611f3557600080fd5b6020850151611f4483866124c4565b1115611f7757611f7785611f6787602001518786611f6291906124c4565b6120e6565b611f729060026125db565b6120fd565b600080865180518760208301019350808887011115611f965787860182525b505050602084015b60208410611fd65780518252611fb56020836124c4565b9150611fc26020826124c4565b9050611fcf602085612639565b9350611f9e565b51815160001960208690036101000a019081169019919091161790525083949350505050565b6118768260028351611bba565b6040805180820190915260608152600060208201528360200151831061203e5761203e8485602001516002611f7291906125db565b83518051602085830101848153508085141561205b576001810182525b5093949350505050565b604080518082019091526060815260006020820152602085015161208985846124c4565b111561209d5761209d85611f6786856124c4565b600060016120ad84610100612533565b6120b79190612639565b90508551838682010185831982511617815250805184870111156120db5783860181525b509495945050505050565b6000818311156120f7575081610646565b50919050565b81516121098383611b55565b50611bdf8382611ccf565b508054600082559060005260206000209081019061094b919061216d565b6040805160a0810182526000808252602080830182905282840182905260608084018390528451808601909552845283015290608082015290565b5b80821115612182576000815560010161216e565b5090565b80356001600160a01b038116811461219d57600080fd5b919050565b6000602082840312156121b3578081fd5b61163482612186565b6000602082840312156121cd578081fd5b81518015158114611634578182fd5b6000602082840312156121ed578081fd5b5035919050565b60008060408385031215612206578081fd5b8235915061221660208401612186565b90509250929050565b60008060408385031215612231578182fd5b50508035926020909101359150565b600060208284031215612251578081fd5b81356001600160e01b031981168114611634578182fd5b6000806020838503121561227a578182fd5b823567ffffffffffffffff80821115612291578384fd5b818501915085601f8301126122a4578384fd5b8135818111156122b2578485fd5b8660208285010111156122c3578485fd5b60209290920196919550909350505050565b6000602082840312156122e6578081fd5b5051919050565b60008151808452612305816020860160208601612650565b601f01601f19169290920160200192915050565b7f416363657373436f6e74726f6c3a206163636f756e7420000000000000000000815260008351612351816017850160208801612650565b7001034b99036b4b9b9b4b733903937b6329607d1b6017918401918201528351612382816028840160208801612650565b01602801949350505050565b6001600160a01b0389811682526020820189905260408201889052861660608201526001600160e01b03198516608082015260a0810184905260c0810183905261010060e082018190526000906123e7838201856122ed565b9b9a5050505050505050505050565b60018060a01b03841681528260208201526060604082015260006115d560608301846122ed565b604080825283519082018190526000906020906060840190828701845b8281101561245f5781516001600160a01b03168452928401929084019060010161243a565b50505092019290925292915050565b821515815260406020820152600061186160408301846122ed565b60208101600383106124ab57634e487b7160e01b600052602160045260246000fd5b91905290565b60208152600061163460208301846122ed565b600082198211156124d7576124d76126c2565b500190565b6000826124eb576124eb6126d8565b500490565b600181815b8085111561252b578160001904821115612511576125116126c2565b8085161561251e57918102915b93841c93908002906124f5565b509250929050565b6000611634838360008261254957506001610646565b8161255657506000610646565b816001811461256c576002811461257657612592565b6001915050610646565b60ff841115612587576125876126c2565b50506001821b610646565b5060208310610133831016604e8410600b84101617156125b5575081810a610646565b6125bf83836124f0565b80600019048211156125d3576125d36126c2565b029392505050565b60008160001904831182151516156125f5576125f56126c2565b500290565b60008083128015600160ff1b850184121615612618576126186126c2565b6001600160ff1b0384018313811615612633576126336126c2565b50500390565b60008282101561264b5761264b6126c2565b500390565b60005b8381101561266b578181015183820152602001612653565b83811115611bdf5750506000910152565b60008161268b5761268b6126c2565b506000190190565b60006000198214156126a7576126a76126c2565b5060010190565b6000826126bd576126bd6126d8565b500690565b634e487b7160e01b600052601160045260246000fd5b634e487b7160e01b600052601260045260246000fdfe68747470733a2f2f6c3366796e763065736c2e657865637574652d6170692e61702d736f757468656173742d312e616d617a6f6e6177732e636f6d2f6465762f67616d65169f97de0d9a84d840042b17d3c6b9638b3d6fd9024c9eb0c7a306a17b49f88fa74ba3945261e09fde15ba3db55005b205e61eeb4ad811ac0faa2b315bffeeada26469706673582212203e7431c9e2a29ff29bc834633001de0db86bd8a4556a93c1f90adf6420625f7e64736f6c63430008040033",
    "linkReferences": {},
    "deployedLinkReferences": {}
}