{
  "_format": "hh-sol-artifact-1",
  "contractName": "Game",
  "sourceName": "contracts/Game.sol",
  "abi": [
    {
      "inputs": [
        {
          "internalType": "uint256",
          "name": "_teamSize",
          "type": "uint256"
        },
        {
          "internalType": "uint256",
          "name": "_entranceFee",
          "type": "uint256"
        }
      ],
      "stateMutability": "nonpayable",
      "type": "constructor"
    },
    {
      "anonymous": false,
      "inputs": [
        {
          "indexed": true,
          "internalType": "bytes32",
          "name": "id",
          "type": "bytes32"
        }
      ],
      "name": "ChainlinkCancelled",
      "type": "event"
    },
    {
      "anonymous": false,
      "inputs": [
        {
          "indexed": true,
          "internalType": "bytes32",
          "name": "id",
          "type": "bytes32"
        }
      ],
      "name": "ChainlinkFulfilled",
      "type": "event"
    },
    {
      "anonymous": false,
      "inputs": [
        {
          "indexed": true,
          "internalType": "bytes32",
          "name": "id",
          "type": "bytes32"
        }
      ],
      "name": "ChainlinkRequested",
      "type": "event"
    },
    {
      "anonymous": false,
      "inputs": [
        {
          "indexed": true,
          "internalType": "address",
          "name": "from",
          "type": "address"
        },
        {
          "indexed": true,
          "internalType": "address",
          "name": "to",
          "type": "address"
        }
      ],
      "name": "OwnershipTransferRequested",
      "type": "event"
    },
    {
      "anonymous": false,
      "inputs": [
        {
          "indexed": true,
          "internalType": "address",
          "name": "from",
          "type": "address"
        },
        {
          "indexed": true,
          "internalType": "address",
          "name": "to",
          "type": "address"
        }
      ],
      "name": "OwnershipTransferred",
      "type": "event"
    },
    {
      "anonymous": false,
      "inputs": [
        {
          "indexed": true,
          "internalType": "bytes32",
          "name": "requestId",
          "type": "bytes32"
        },
        {
          "indexed": false,
          "internalType": "uint256",
          "name": "volume",
          "type": "uint256"
        }
      ],
      "name": "RequestVolume",
      "type": "event"
    },
    {
      "anonymous": false,
      "inputs": [
        {
          "indexed": false,
          "internalType": "address[]",
          "name": "winnerAddresses",
          "type": "address[]"
        },
        {
          "indexed": false,
          "internalType": "uint256",
          "name": "reward",
          "type": "uint256"
        }
      ],
      "name": "RewardDistributedEvent",
      "type": "event"
    },
    {
      "anonymous": false,
      "inputs": [
        {
          "indexed": true,
          "internalType": "bytes32",
          "name": "role",
          "type": "bytes32"
        },
        {
          "indexed": true,
          "internalType": "bytes32",
          "name": "previousAdminRole",
          "type": "bytes32"
        },
        {
          "indexed": true,
          "internalType": "bytes32",
          "name": "newAdminRole",
          "type": "bytes32"
        }
      ],
      "name": "RoleAdminChanged",
      "type": "event"
    },
    {
      "anonymous": false,
      "inputs": [
        {
          "indexed": true,
          "internalType": "bytes32",
          "name": "role",
          "type": "bytes32"
        },
        {
          "indexed": true,
          "internalType": "address",
          "name": "account",
          "type": "address"
        },
        {
          "indexed": true,
          "internalType": "address",
          "name": "sender",
          "type": "address"
        }
      ],
      "name": "RoleGranted",
      "type": "event"
    },
    {
      "anonymous": false,
      "inputs": [
        {
          "indexed": true,
          "internalType": "bytes32",
          "name": "role",
          "type": "bytes32"
        },
        {
          "indexed": true,
          "internalType": "address",
          "name": "account",
          "type": "address"
        },
        {
          "indexed": true,
          "internalType": "address",
          "name": "sender",
          "type": "address"
        }
      ],
      "name": "RoleRevoked",
      "type": "event"
    },
    {
      "anonymous": false,
      "inputs": [
        {
          "indexed": false,
          "internalType": "uint8",
          "name": "gameState",
          "type": "uint8"
        }
      ],
      "name": "UpdateGameState",
      "type": "event"
    },
    {
      "anonymous": false,
      "inputs": [
        {
          "indexed": false,
          "internalType": "uint256",
          "name": "balance",
          "type": "uint256"
        }
      ],
      "name": "Withdraw",
      "type": "event"
    },
    {
      "anonymous": false,
      "inputs": [
        {
          "indexed": false,
          "internalType": "address",
          "name": "_playerAddress",
          "type": "address"
        },
        {
          "indexed": false,
          "internalType": "uint256",
          "name": "_teamNumber",
          "type": "uint256"
        }
      ],
      "name": "playerReadyEvent",
      "type": "event"
    },
    {
      "inputs": [],
      "name": "ADMIN_ROLE",
      "outputs": [
        {
          "internalType": "bytes32",
          "name": "",
          "type": "bytes32"
        }
      ],
      "stateMutability": "view",
      "type": "function"
    },
    {
      "inputs": [],
      "name": "DEFAULT_ADMIN_ROLE",
      "outputs": [
        {
          "internalType": "bytes32",
          "name": "",
          "type": "bytes32"
        }
      ],
      "stateMutability": "view",
      "type": "function"
    },
    {
      "inputs": [],
      "name": "acceptOwnership",
      "outputs": [],
      "stateMutability": "nonpayable",
      "type": "function"
    },
    {
      "inputs": [
        {
          "internalType": "address",
          "name": "",
          "type": "address"
        }
      ],
      "name": "addressToTeam",
      "outputs": [
        {
          "internalType": "uint256",
          "name": "",
          "type": "uint256"
        }
      ],
      "stateMutability": "view",
      "type": "function"
    },
    {
      "inputs": [
        {
          "internalType": "bytes",
          "name": "",
          "type": "bytes"
        }
      ],
      "name": "checkUpkeep",
      "outputs": [
        {
          "internalType": "bool",
          "name": "upkeepNeeded",
          "type": "bool"
        },
        {
          "internalType": "bytes",
          "name": "",
          "type": "bytes"
        }
      ],
      "stateMutability": "view",
      "type": "function"
    },
    {
      "inputs": [],
      "name": "currentState",
      "outputs": [
        {
          "internalType": "enum Game.GameState",
          "name": "",
          "type": "uint8"
        }
      ],
      "stateMutability": "view",
      "type": "function"
    },
    {
      "inputs": [],
      "name": "entranceFee",
      "outputs": [
        {
          "internalType": "uint256",
          "name": "",
          "type": "uint256"
        }
      ],
      "stateMutability": "view",
      "type": "function"
    },
    {
      "inputs": [
        {
          "internalType": "bytes32",
          "name": "_requestId",
          "type": "bytes32"
        },
        {
          "internalType": "uint256",
          "name": "_volume",
          "type": "uint256"
        }
      ],
      "name": "fulfill",
      "outputs": [],
      "stateMutability": "nonpayable",
      "type": "function"
    },
    {
      "inputs": [
        {
          "internalType": "bytes32",
          "name": "role",
          "type": "bytes32"
        }
      ],
      "name": "getRoleAdmin",
      "outputs": [
        {
          "internalType": "bytes32",
          "name": "",
          "type": "bytes32"
        }
      ],
      "stateMutability": "view",
      "type": "function"
    },
    {
      "inputs": [
        {
          "internalType": "bytes32",
          "name": "role",
          "type": "bytes32"
        },
        {
          "internalType": "address",
          "name": "account",
          "type": "address"
        }
      ],
      "name": "grantRole",
      "outputs": [],
      "stateMutability": "nonpayable",
      "type": "function"
    },
    {
      "inputs": [
        {
          "internalType": "bytes32",
          "name": "role",
          "type": "bytes32"
        },
        {
          "internalType": "address",
          "name": "account",
          "type": "address"
        }
      ],
      "name": "hasRole",
      "outputs": [
        {
          "internalType": "bool",
          "name": "",
          "type": "bool"
        }
      ],
      "stateMutability": "view",
      "type": "function"
    },
    {
      "inputs": [],
      "name": "owner",
      "outputs": [
        {
          "internalType": "address",
          "name": "",
          "type": "address"
        }
      ],
      "stateMutability": "view",
      "type": "function"
    },
    {
      "inputs": [
        {
          "internalType": "bytes",
          "name": "",
          "type": "bytes"
        }
      ],
      "name": "performUpkeep",
      "outputs": [],
      "stateMutability": "nonpayable",
      "type": "function"
    },
    {
      "inputs": [
        {
          "internalType": "uint256",
          "name": "_teamNumber",
          "type": "uint256"
        }
      ],
      "name": "playerReady",
      "outputs": [],
      "stateMutability": "payable",
      "type": "function"
    },
    {
      "inputs": [
        {
          "internalType": "bytes32",
          "name": "role",
          "type": "bytes32"
        },
        {
          "internalType": "address",
          "name": "account",
          "type": "address"
        }
      ],
      "name": "renounceRole",
      "outputs": [],
      "stateMutability": "nonpayable",
      "type": "function"
    },
    {
      "inputs": [],
      "name": "requestVolumeData",
      "outputs": [
        {
          "internalType": "bytes32",
          "name": "requestId",
          "type": "bytes32"
        }
      ],
      "stateMutability": "nonpayable",
      "type": "function"
    },
    {
      "inputs": [
        {
          "internalType": "bytes32",
          "name": "role",
          "type": "bytes32"
        },
        {
          "internalType": "address",
          "name": "account",
          "type": "address"
        }
      ],
      "name": "revokeRole",
      "outputs": [],
      "stateMutability": "nonpayable",
      "type": "function"
    },
    {
      "inputs": [
        {
          "internalType": "address",
          "name": "_gameAdmin",
          "type": "address"
        }
      ],
      "name": "setAdminRole",
      "outputs": [],
      "stateMutability": "nonpayable",
      "type": "function"
    },
    {
      "inputs": [
        {
          "internalType": "uint256",
          "name": "_entranceFee",
          "type": "uint256"
        }
      ],
      "name": "setEntranceFee",
      "outputs": [],
      "stateMutability": "nonpayable",
      "type": "function"
    },
    {
      "inputs": [
        {
          "internalType": "uint8",
          "name": "gameState",
          "type": "uint8"
        }
      ],
      "name": "setGameState",
      "outputs": [],
      "stateMutability": "nonpayable",
      "type": "function"
    },
    {
      "inputs": [
        {
          "internalType": "uint256",
          "name": "_taxFee",
          "type": "uint256"
        }
      ],
      "name": "setTaxFee",
      "outputs": [],
      "stateMutability": "nonpayable",
      "type": "function"
    },
    {
      "inputs": [
        {
          "internalType": "uint256",
          "name": "_teamSize",
          "type": "uint256"
        }
      ],
      "name": "setTeamSize",
      "outputs": [],
      "stateMutability": "nonpayable",
      "type": "function"
    },
    {
      "inputs": [
        {
          "internalType": "uint256",
          "name": "_teamNumber",
          "type": "uint256"
        }
      ],
      "name": "setWinningTeam",
      "outputs": [],
      "stateMutability": "nonpayable",
      "type": "function"
    },
    {
      "inputs": [
        {
          "internalType": "bytes4",
          "name": "interfaceId",
          "type": "bytes4"
        }
      ],
      "name": "supportsInterface",
      "outputs": [
        {
          "internalType": "bool",
          "name": "",
          "type": "bool"
        }
      ],
      "stateMutability": "view",
      "type": "function"
    },
    {
      "inputs": [],
      "name": "taxFee",
      "outputs": [
        {
          "internalType": "uint256",
          "name": "",
          "type": "uint256"
        }
      ],
      "stateMutability": "view",
      "type": "function"
    },
    {
      "inputs": [],
      "name": "teamSize",
      "outputs": [
        {
          "internalType": "uint256",
          "name": "",
          "type": "uint256"
        }
      ],
      "stateMutability": "view",
      "type": "function"
    },
    {
      "inputs": [
        {
          "internalType": "uint256",
          "name": "",
          "type": "uint256"
        },
        {
          "internalType": "uint256",
          "name": "",
          "type": "uint256"
        }
      ],
      "name": "teamToAddresses",
      "outputs": [
        {
          "internalType": "address",
          "name": "",
          "type": "address"
        }
      ],
      "stateMutability": "view",
      "type": "function"
    },
    {
      "inputs": [],
      "name": "totalBalance",
      "outputs": [
        {
          "internalType": "uint256",
          "name": "",
          "type": "uint256"
        }
      ],
      "stateMutability": "view",
      "type": "function"
    },
    {
      "inputs": [
        {
          "internalType": "address",
          "name": "to",
          "type": "address"
        }
      ],
      "name": "transferOwnership",
      "outputs": [],
      "stateMutability": "nonpayable",
      "type": "function"
    },
    {
      "inputs": [],
      "name": "volume",
      "outputs": [
        {
          "internalType": "uint256",
          "name": "",
          "type": "uint256"
        }
      ],
      "stateMutability": "view",
      "type": "function"
    },
    {
      "inputs": [],
      "name": "winningTeam",
      "outputs": [
        {
          "internalType": "uint256",
          "name": "",
          "type": "uint256"
        }
      ],
      "stateMutability": "view",
      "type": "function"
    },
    {
      "inputs": [],
      "name": "withdraw",
      "outputs": [],
      "stateMutability": "nonpayable",
      "type": "function"
    },
    {
      "inputs": [],
      "name": "withdrawLink",
      "outputs": [],
      "stateMutability": "nonpayable",
      "type": "function"
    }
  ],
  "bytecode": "0x60806040526001600655655af3107a40006013553480156200002057600080fd5b5060405162002caf38038062002caf83398101604081905262000043916200038f565b600160009081553390819081620000a15760405162461bcd60e51b815260206004820152601860248201527f43616e6e6f7420736574206f776e657220746f207a65726f000000000000000060448201526064015b60405180910390fd5b600880546001600160a01b0319166001600160a01b0384811691909117909155811615620000d457620000d4816200024a565b505050600082116200011b5760405162461bcd60e51b815260206004820152600f60248201526e57524f4e475f5445414d5f53495a4560881b604482015260640162000098565b60008111620001625760405162461bcd60e51b815260206004820152601260248201527157524f4e475f454e5452414e43455f46454560701b604482015260640162000098565b6000601181905560145560108290556012819055600d805460ff19169055600480546001600160a01b03191673a36085f69e2889c224210f603d836748e7dc0088179055600580546001600160a01b0319167374ecc8bdeb76f2c6760ed2dc8a46ca5e581fa6561790557f6361393833363663633733313439353762386330313263373266303561656562600b55600a62000207670de0b6b3a76400006001620003d4565b620002139190620003b3565b600c55620002427f745191d59a0c5ecaf2331ad3570e4033c5b04de0434263ec14a70fce5475ab7f33620002f7565b505062000400565b6001600160a01b038116331415620002a55760405162461bcd60e51b815260206004820152601760248201527f43616e6e6f74207472616e7366657220746f2073656c66000000000000000000604482015260640162000098565b600980546001600160a01b0319166001600160a01b03838116918217909255600854604051919216907fed8889f560326eb138920d842192f0eb3dd22b4f139c87a2c57538e05bae127890600090a350565b62000303828262000307565b5050565b60008281526001602090815260408083206001600160a01b038516845290915290205460ff16620003035760008281526001602081815260408084206001600160a01b0386168086529252808420805460ff19169093179092559051339285917f2f8788117e7eff1d82e926ec794901d17c78024a50270940304540a733656f0d9190a45050565b60008060408385031215620003a2578182fd5b505080516020909101519092909150565b600082620003cf57634e487b7160e01b81526012600452602481fd5b500490565b6000816000190483118215151615620003fb57634e487b7160e01b81526011600452602481fd5b500290565b61289f80620004106000396000f3fe6080604052600436106101ee5760003560e01c80638da5cb5b1161010d578063c4081a4c116100a0578063e3c00b201161006f578063e3c00b2014610582578063e6a3e67f146105a2578063ecce7e63146105b5578063f2fde38b146105d5578063fe56f5a0146105f557600080fd5b8063c4081a4c14610516578063c618a1e414610536578063d547741f1461054c578063de3f18e21461056c57600080fd5b8063a217fddf116100dc578063a217fddf146104a8578063ad7a672f146104bd578063ad92ab35146104d3578063b6c325931461050057600080fd5b80638da5cb5b1461043f5780638dc654a21461045d57806391d1485414610472578063a071dcf41461049257600080fd5b80634adc7cfd116101855780636dd047f3116101545780636dd047f3146103a85780636e04ff0d146103c857806375b238fc146103f657806379ba50971461042a57600080fd5b80634adc7cfd146103255780636021abac14610345578063649677e11461035a5780636c2ae6cc1461037057600080fd5b806336568abe116101c157806336568abe146102b05780633ccfd60b146102d05780634357855e146102e55780634585e33b1461030557600080fd5b806301ffc9a7146101f35780630c3f6acf14610228578063248a9ca31461024f5780632f2ff15d1461028e575b600080fd5b3480156101ff57600080fd5b5061021361020e366004612316565b610615565b60405190151581526020015b60405180910390f35b34801561023457600080fd5b50600d546102429060ff1681565b60405161021f9190612580565b34801561025b57600080fd5b5061028061026a3660046122b2565b6000908152600160208190526040909120015490565b60405190815260200161021f565b34801561029a57600080fd5b506102ae6102a93660046122ca565b61064c565b005b3480156102bc57600080fd5b506102ae6102cb3660046122ca565b610677565b3480156102dc57600080fd5b506102ae6106fa565b3480156102f157600080fd5b506102ae6103003660046122f5565b6107bf565b34801561031157600080fd5b506102ae61032036600461233e565b6108c9565b34801561033157600080fd5b506102ae610340366004612278565b61091a565b34801561035157600080fd5b5061028061094f565b34801561036657600080fd5b5061028060125481565b34801561037c57600080fd5b5061039061038b3660046122f5565b610aa7565b6040516001600160a01b03909116815260200161021f565b3480156103b457600080fd5b506102ae6103c33660046123c3565b610adf565b3480156103d457600080fd5b506103e86103e336600461233e565b610bb1565b60405161021f929190612565565b34801561040257600080fd5b506102807f745191d59a0c5ecaf2331ad3570e4033c5b04de0434263ec14a70fce5475ab7f81565b34801561043657600080fd5b506102ae610c02565b34801561044b57600080fd5b506008546001600160a01b0316610390565b34801561046957600080fd5b506102ae610cb0565b34801561047e57600080fd5b5061021361048d3660046122ca565b610e0f565b34801561049e57600080fd5b5061028060135481565b3480156104b457600080fd5b50610280600081565b3480156104c957600080fd5b5061028060115481565b3480156104df57600080fd5b506102806104ee366004612278565b600e6020526000908152604090205481565b34801561050c57600080fd5b5061028060105481565b34801561052257600080fd5b506102ae6105313660046122b2565b610e3a565b34801561054257600080fd5b50610280600a5481565b34801561055857600080fd5b506102ae6105673660046122ca565b610e47565b34801561057857600080fd5b5061028060145481565b34801561058e57600080fd5b506102ae61059d3660046122b2565b610e6d565b6102ae6105b03660046122b2565b610ebc565b3480156105c157600080fd5b506102ae6105d03660046122b2565b611131565b3480156105e157600080fd5b506102ae6105f0366004612278565b61119d565b34801561060157600080fd5b506102ae6106103660046122b2565b6111ae565b60006001600160e01b03198216637965db0b60e01b148061064657506301ffc9a760e01b6001600160e01b03198316145b92915050565b6000828152600160208190526040909120015461066881611202565b610672838361120c565b505050565b6001600160a01b03811633146106ec5760405162461bcd60e51b815260206004820152602f60248201527f416363657373436f6e74726f6c3a2063616e206f6e6c792072656e6f756e636560448201526e103937b632b9903337b91039b2b63360891b60648201526084015b60405180910390fd5b6106f68282611277565b5050565b6107026112de565b478061075a5760405162461bcd60e51b815260206004820152602160248201527f57697468647261773a204e4f5f4e41544956455f544f4b454e5f42414c414e436044820152604560f81b60648201526084016106e3565b604051339082156108fc029083906000818181858888f19350505050158015610787573d6000803e3d6000fd5b506040518181527f5b6b431d4476a211bb7d41c20d1aab9ae2321deee0d20be3d9fc9b1093fa6e3d906020015b60405180910390a150565b60008281526007602052604090205482906001600160a01b031633146108385760405162461bcd60e51b815260206004820152602860248201527f536f75726365206d75737420626520746865206f7261636c65206f6620746865604482015267081c995c5d595cdd60c21b60648201526084016106e3565b60008181526007602052604080822080546001600160a01b03191690555182917f7cc135e0cebb02c3480ae5d74d377283180a2601f8f644edf7987b009316c63a91a2827f673b38182859a514d734bdfcb49d3a05c4a641dec9311d9894c9717bcb79af76836040516108ad91815260200190565b60405180910390a25060145550600d805460ff19166002179055565b6002600d5460ff1660028111156108f057634e487b7160e01b600052602160045260246000fd5b1480156108fe575060145415155b801561090d5750601454600314155b156106f6576106f6611333565b6109226112de565b61094c7f745191d59a0c5ecaf2331ad3570e4033c5b04de0434263ec14a70fce5475ab7f826114f2565b50565b600061097b7f745191d59a0c5ecaf2331ad3570e4033c5b04de0434263ec14a70fce5475ab7f33610e0f565b6109bd5760405162461bcd60e51b815260206004820152601360248201527221a0a62622a92fa4a9afa727aa2fa0a226a4a760691b60448201526064016106e3565b60006109d3600b5430634357855e60e01b6114fc565b9050610a156040518060400160405280600381526020016219d95d60ea1b8152506040518060800160405280604481526020016127e660449139839190611521565b610a69604051806040016040528060048152602001630e0c2e8d60e31b8152506040518060400160405280600b81526020016a3137b23c963bb4b73732b960a91b815250836115219092919063ffffffff16565b60408051808201909152600581526474696d657360d81b6020820152600190610a949083908361153f565b610aa082600c5461155d565b9250505090565b600f6020528160005260406000208181548110610ac357600080fd5b6000918252602090912001546001600160a01b03169150829050565b610ae76112de565b60048160ff1610610b2f5760405162461bcd60e51b8152602060048201526012602482015271494e56414c49445f47616d655f537461746560701b60448201526064016106e3565b60ff8116610b5157600d80546000919060ff19166001835b0217905550610b7e565b8060ff1660011415610b7057600d80546001919060ff19168280610b47565b600d805460ff191660021790555b60405160ff821681527f60e43f14457a45c82474396cf2e2247df607e050c3d5aa20f83b4769d41f3036906020016107b4565b600060606002600d5460ff166002811115610bdc57634e487b7160e01b600052602160045260246000fd5b148015610bea575060145415155b8015610bf95750601454600314155b91509250929050565b6009546001600160a01b03163314610c555760405162461bcd60e51b815260206004820152601660248201527526bab9ba10313290383937b837b9b2b21037bbb732b960511b60448201526064016106e3565b600880546001600160a01b0319808216339081179093556009805490911690556040516001600160a01b03909116919082907f8be0079c531659141344cd1fd0a4f28419497f9722a3daafe3b4186f6b6457e090600090a350565b610cb86112de565b6000610ccc6004546001600160a01b031690565b6040516370a0823160e01b81523060048201529091506001600160a01b0382169063a9059cbb90339083906370a082319060240160206040518083038186803b158015610d1857600080fd5b505afa158015610d2c573d6000803e3d6000fd5b505050506040513d601f19601f82011682018060405250810190610d5091906123ab565b6040516001600160e01b031960e085901b1681526001600160a01b0390921660048301526024820152604401602060405180830381600087803b158015610d9657600080fd5b505af1158015610daa573d6000803e3d6000fd5b505050506040513d601f19601f82011682018060405250810190610dce9190612292565b61094c5760405162461bcd60e51b81526020600482015260126024820152712ab730b13632903a37903a3930b739b332b960711b60448201526064016106e3565b60009182526001602090815260408084206001600160a01b0393909316845291905290205460ff1690565b610e426112de565b601355565b60008281526001602081905260409091200154610e6381611202565b6106728383611277565b610e756112de565b60008111610eb75760405162461bcd60e51b815260206004820152600f60248201526e57524f4e475f5445414d5f53495a4560881b60448201526064016106e3565b601055565b60026000541415610f0f5760405162461bcd60e51b815260206004820152601f60248201527f5265656e7472616e637947756172643a207265656e7472616e742063616c6c0060448201526064016106e3565b60026000558015801590610f235750600381105b610f655760405162461bcd60e51b815260206004820152601360248201527224a72b20a624a22faa22a0a6afa72aa6a122a960691b60448201526064016106e3565b3460125414610fad5760405162461bcd60e51b81526020600482015260146024820152734e4f545f454e4f5547485f464f525f454e54525960601b60448201526064016106e3565b6010546000828152600f60205260409020541115610ffc5760405162461bcd60e51b815260206004820152600c60248201526b1511505357d254d7d195531360a21b60448201526064016106e3565b611006338261157e565b156110435760405162461bcd60e51b815260206004820152600d60248201526c20a62922a0a22cafa2a72a22a960991b60448201526064016106e3565b336000818152600e60209081526040808320859055848352600f8252822080546001810182559083529082200180546001600160a01b031916909217909155601180543492906110949084906125bb565b90915550506010546001600052600f60205260008051602061282a833981519152541480156110dd57506010546002600052600f60205260008051602061284a83398151915254145b156110f057600d805460ff191660011790555b60408051338152602081018390527fdb1b2b12c764a72c7b10511a5631f230eb2d7219fe0a3c31e04d9ff1699e0ef8910160405180910390a1506001600055565b6111396112de565b6000811180156111495750600481105b61118b5760405162461bcd60e51b815260206004820152601360248201527224a72b20a624a22faa22a0a6afa72aa6a122a960691b60448201526064016106e3565b601455600d805460ff19166002179055565b6111a56112de565b61094c81611657565b6111b66112de565b6000601254116111fd5760405162461bcd60e51b815260206004820152601260248201527157524f4e475f454e5452414e43455f46454560701b60448201526064016106e3565b601255565b61094c8133611702565b6112168282610e0f565b6106f65760008281526001602081815260408084206001600160a01b0386168086529252808420805460ff19169093179092559051339285917f2f8788117e7eff1d82e926ec794901d17c78024a50270940304540a733656f0d9190a45050565b6112818282610e0f565b156106f65760008281526001602090815260408083206001600160a01b0385168085529252808320805460ff1916905551339285917ff6391f5c32d9c69d2a47ea670b442974b53935d1edc7fd64eb21e047a839171b9190a45050565b6008546001600160a01b031633146113315760405162461bcd60e51b815260206004820152601660248201527527b7363c9031b0b63630b1363290313c9037bbb732b960511b60448201526064016106e3565b565b60006010546013546011546113489190612730565b61135291906125d3565b90506000600f600060145481526020019081526020016000208054806020026020016040519081016040528092919081815260200182805480156113bf57602002820191906000526020600020905b81546001600160a01b031681526001909101906020018083116113a1575b5050505050905060005b6010548110156114ac576000808383815181106113f657634e487b7160e01b600052603260045260246000fd5b60200260200101516001600160a01b03168560405160006040518083038185875af1925050503d8060008114611448576040519150601f19603f3d011682016040523d82523d6000602084013e61144d565b606091505b5091509150816114975760405162461bcd60e51b815260206004820152601560248201527411985a5b1959081d1bc81cd95b990814995dd85c99605a1b60448201526064016106e3565b505080806114a49061278a565b9150506113c9565b506114b5611766565b7ffb21d734d914ecf0a9bc260ce72204fb9d04a3f781d0fa034c63bc8ac9684f6381836040516114e6929190612514565b60405180910390a15050565b6106f6828261120c565b6115046121ef565b61150c6121ef565b611518818686866118fe565b95945050505050565b60808301516115309083611944565b60808301516106729082611944565b608083015161154e9083611944565b6080830151610672908261195b565b600554600090611577906001600160a01b031684846119bb565b9392505050565b6000818152600f60209081526040808320805482518185028101850190935280835284938301828280156115db57602002820191906000526020600020905b81546001600160a01b031681526001909101906020018083116115bd575b5050505050905060005b815181101561164c57846001600160a01b031682828151811061161857634e487b7160e01b600052603260045260246000fd5b60200260200101516001600160a01b0316141561163a57600192505050610646565b806116448161278a565b9150506115e5565b506000949350505050565b6001600160a01b0381163314156116b05760405162461bcd60e51b815260206004820152601760248201527f43616e6e6f74207472616e7366657220746f2073656c6600000000000000000060448201526064016106e3565b600980546001600160a01b0319166001600160a01b03838116918217909255600854604051919216907fed8889f560326eb138920d842192f0eb3dd22b4f139c87a2c57538e05bae127890600090a350565b61170c8282610e0f565b6106f657611724816001600160a01b03166014611a4e565b61172f836020611a4e565b604051602001611740929190612410565b60408051601f198184030181529082905262461bcd60e51b82526106e3916004016125a8565b60005b6001600052600f60205260008051602061282a833981519152548110156118015760016000908152600f60205260008051602061282a8339815191528054600e929190849081106117ca57634e487b7160e01b600052603260045260246000fd5b60009182526020808320909101546001600160a01b03168352820192909252604001812055806117f98161278a565b915050611769565b5060005b6002600052600f60205260008051602061284a8339815191525481101561189d5760026000908152600f60205260008051602061284a8339815191528054600e9291908490811061186657634e487b7160e01b600052603260045260246000fd5b60009182526020808320909101546001600160a01b03168352820192909252604001812055806118958161278a565b915050611805565b5060016000908152600f6020526118c39060008051602061282a8339815191529061222a565b60026000908152600f6020526118e89060008051602061284a8339815191529061222a565b60006011819055601455600d805460ff19169055565b6119066121ef565b6119168560800151610100611c30565b50508284526001600160a01b03821660208501526001600160e01b031981166040850152835b949350505050565b6119518260038351611c95565b6106728282611daa565b67ffffffffffffffff19811215611976576106f68282611dd1565b67ffffffffffffffff811315611990576106f68282611e13565b600081126119a4576106f682600083611c95565b6106f68260016119b6846000196126f1565b611c95565b6006546000906119cc8160016125bb565b600655835160408086015160808701515191516000936320214ca360e11b93611a049386938493923092918a91600191602401612485565b60408051601f198184030181529190526020810180516001600160e01b03166001600160e01b0319909316929092179091529050611a4486838684611e36565b9695505050505050565b60606000611a5d8360026126d2565b611a689060026125bb565b67ffffffffffffffff811115611a8e57634e487b7160e01b600052604160045260246000fd5b6040519080825280601f01601f191660200182016040528015611ab8576020820181803683370190505b509050600360fc1b81600081518110611ae157634e487b7160e01b600052603260045260246000fd5b60200101906001600160f81b031916908160001a905350600f60fb1b81600181518110611b1e57634e487b7160e01b600052603260045260246000fd5b60200101906001600160f81b031916908160001a9053506000611b428460026126d2565b611b4d9060016125bb565b90505b6001811115611be1576f181899199a1a9b1b9c1cb0b131b232b360811b85600f1660108110611b8f57634e487b7160e01b600052603260045260246000fd5b1a60f81b828281518110611bb357634e487b7160e01b600052603260045260246000fd5b60200101906001600160f81b031916908160001a90535060049490941c93611bda81612773565b9050611b50565b5083156115775760405162461bcd60e51b815260206004820181905260248201527f537472696e67733a20686578206c656e67746820696e73756666696369656e7460448201526064016106e3565b604080518082019091526060815260006020820152611c506020836127a5565b15611c7857611c606020836127a5565b611c6b906020612730565b611c7590836125bb565b91505b506020828101829052604080518085526000815290920101905290565b60178167ffffffffffffffff1611611cc057611cba8360e0600585901b168317611fa2565b50505050565b60ff8167ffffffffffffffff1611611cfe57611ce7836018611fe0600586901b1617611fa2565b50611cba8367ffffffffffffffff83166001611fc7565b61ffff8167ffffffffffffffff1611611d3d57611d26836019611fe0600586901b1617611fa2565b50611cba8367ffffffffffffffff83166002611fc7565b63ffffffff8167ffffffffffffffff1611611d7e57611d6783601a611fe0600586901b1617611fa2565b50611cba8367ffffffffffffffff83166004611fc7565b611d9383601b611fe0600586901b1617611fa2565b50611cba8367ffffffffffffffff83166008611fc7565b60408051808201909152606081526000602082015261157783846000015151848551611fed565b611ddc8260c3611fa2565b506106f682611ded836000196126f1565b604051602001611dff91815260200190565b6040516020818303038152906040526120d7565b611e1e8260c2611fa2565b506106f68282604051602001611dff91815260200190565b6040516bffffffffffffffffffffffff193060601b1660208201526034810184905260009060540160408051808303601f1901815282825280516020918201206000818152600790925291812080546001600160a01b0319166001600160a01b038a1617905590925082917fb5e6e01e79f91267dc17b4e6314d5d4d03593d2ceee0fbb452b750bd70ea5af99190a260048054604051630200057560e51b81526001600160a01b0390911691634000aea091611ef891899188918891016124ed565b602060405180830381600087803b158015611f1257600080fd5b505af1158015611f26573d6000803e3d6000fd5b505050506040513d601f19601f82011682018060405250810190611f4a9190612292565b61193c5760405162461bcd60e51b815260206004820152602360248201527f756e61626c6520746f207472616e73666572416e6443616c6c20746f206f7261604482015262636c6560e81b60648201526084016106e3565b60408051808201909152606081526000602082015261157783846000015151846120e4565b60408051808201909152606081526000602082015261193c848560000151518585612140565b604080518082019091526060815260006020820152825182111561201057600080fd5b602085015161201f83866125bb565b111561205257612052856120428760200151878661203d91906125bb565b6121c1565b61204d9060026126d2565b6121d8565b6000808651805187602083010193508088870111156120715787860182525b505050602084015b602084106120b157805182526120906020836125bb565b915061209d6020826125bb565b90506120aa602085612730565b9350612079565b51815160001960208690036101000a019081169019919091161790525083949350505050565b6119518260028351611c95565b6040805180820190915260608152600060208201528360200151831061211957612119848560200151600261204d91906126d2565b835180516020858301018481535080851415612136576001810182525b5093949350505050565b604080518082019091526060815260006020820152602085015161216485846125bb565b1115612178576121788561204286856125bb565b600060016121888461010061262a565b6121929190612730565b90508551838682010185831982511617815250805184870111156121b65783860181525b509495945050505050565b6000818311156121d2575081610646565b50919050565b81516121e48383611c30565b50611cba8382611daa565b6040805160a0810182526000808252602080830182905282840182905260608084018390528451808601909552845283015290608082015290565b508054600082559060005260206000209081019061094c91905b808211156122585760008155600101612244565b5090565b80356001600160a01b038116811461227357600080fd5b919050565b600060208284031215612289578081fd5b6115778261225c565b6000602082840312156122a3578081fd5b81518015158114611577578182fd5b6000602082840312156122c3578081fd5b5035919050565b600080604083850312156122dc578081fd5b823591506122ec6020840161225c565b90509250929050565b60008060408385031215612307578182fd5b50508035926020909101359150565b600060208284031215612327578081fd5b81356001600160e01b031981168114611577578182fd5b60008060208385031215612350578182fd5b823567ffffffffffffffff80821115612367578384fd5b818501915085601f83011261237a578384fd5b813581811115612388578485fd5b866020828501011115612399578485fd5b60209290920196919550909350505050565b6000602082840312156123bc578081fd5b5051919050565b6000602082840312156123d4578081fd5b813560ff81168114611577578182fd5b600081518084526123fc816020860160208601612747565b601f01601f19169290920160200192915050565b7f416363657373436f6e74726f6c3a206163636f756e7420000000000000000000815260008351612448816017850160208801612747565b7001034b99036b4b9b9b4b733903937b6329607d1b6017918401918201528351612479816028840160208801612747565b01602801949350505050565b6001600160a01b0389811682526020820189905260408201889052861660608201526001600160e01b03198516608082015260a0810184905260c0810183905261010060e082018190526000906124de838201856123e4565b9b9a5050505050505050505050565b60018060a01b038416815282602082015260606040820152600061151860608301846123e4565b604080825283519082018190526000906020906060840190828701845b828110156125565781516001600160a01b031684529284019290840190600101612531565b50505092019290925292915050565b821515815260406020820152600061193c60408301846123e4565b60208101600383106125a257634e487b7160e01b600052602160045260246000fd5b91905290565b60208152600061157760208301846123e4565b600082198211156125ce576125ce6127b9565b500190565b6000826125e2576125e26127cf565b500490565b600181815b80851115612622578160001904821115612608576126086127b9565b8085161561261557918102915b93841c93908002906125ec565b509250929050565b6000611577838360008261264057506001610646565b8161264d57506000610646565b8160018114612663576002811461266d57612689565b6001915050610646565b60ff84111561267e5761267e6127b9565b50506001821b610646565b5060208310610133831016604e8410600b84101617156126ac575081810a610646565b6126b683836125e7565b80600019048211156126ca576126ca6127b9565b029392505050565b60008160001904831182151516156126ec576126ec6127b9565b500290565b60008083128015600160ff1b85018412161561270f5761270f6127b9565b6001600160ff1b038401831381161561272a5761272a6127b9565b50500390565b600082821015612742576127426127b9565b500390565b60005b8381101561276257818101518382015260200161274a565b83811115611cba5750506000910152565b600081612782576127826127b9565b506000190190565b600060001982141561279e5761279e6127b9565b5060010190565b6000826127b4576127b46127cf565b500690565b634e487b7160e01b600052601160045260246000fd5b634e487b7160e01b600052601260045260246000fdfe68747470733a2f2f6c3366796e763065736c2e657865637574652d6170692e61702d736f757468656173742d312e616d617a6f6e6177732e636f6d2f6465762f67616d65169f97de0d9a84d840042b17d3c6b9638b3d6fd9024c9eb0c7a306a17b49f88fa74ba3945261e09fde15ba3db55005b205e61eeb4ad811ac0faa2b315bffeeada26469706673582212206fcae135d80779edfacbff8d98cae05cf7bf6bf2bad9de6ff618aaaf74903af364736f6c63430008040033",
  "linkReferences": {},
  "deployedLinkReferences": {}
}